:020000040800F2
:100000000050002089090008B9050008BF05000854
:10001000C5050008CB050008D10500080000000058
:10002000000000000000000000000000D7050008EC
:10003000E305000800000000EF050008FB050008CC
:10004000D1090008D1090008D1090008D109000828
:10005000D1090008D1090008D1090008D109000818
:10006000D1090008D1090008D1090008D109000808
:10007000D1090008D1090008D1090008D1090008F8
:10008000D1090008D1090008D1090008D1090008E8
:10009000D1090008D1090008D1090008D1090008D8
:1000A000D1090008D1090008D1090008D1090008C8
:1000B00009060008D1090008D10900081D0600083A
:1000C00031060008D1090008D1090008D10900084B
:1000D000D1090008D1090008D1090008D109000898
:1000E000D1090008D1090008D1090008000000006A
:1000F0000000000000000000000000000000000000
:0C01000000000000000000005FF808F1A3
:10010C0010B5054C237833B9044B13B10448AFF345
:10011C0000800123237010BD880000200000000027
:10012C007447000808B5034B1BB103490348AFF3F0
:10013C00008008BD000000008C00002074470008FF
:10014C0080B500AF00F040FC00F010F800F0C4F8EF
:10015C0000F076F800F046F8034803F0FBFA00F0E4
:10016C00B1FA00F0E5FAFCE71001002080B590B080
:10017C0000AF07F1180328220021184604F0ECFA0E
:10018C003B1D00221A605A609A60DA601A610223E1
:10019C00BB610123BB621023FB6200237B6307F16D
:1001AC001803184602F08CFE0346002B01D000F019
:1001BC0041F90F237B600023BB600023FB604FF4ED
:1001CC0080633B6100237B613B1D0021184603F0DB
:1001DC00F7F80346002B01D000F02CF900BF403794
:1001EC00BD4680BD80B500AF124B134A1A60114B4F
:1001FC00124A5A600F4B00229A600E4B0022DA60B2
:10020C000C4B4FF480421A610A4B00225A61094B85
:10021C0000229A61074B0022DA61064B00221A6217
:10022C00044800F07BFF0346002B01D000F002F9DC
:10023C0000BF80BDBC00002000540040A08601001F
:10024C0080B586B000AF07F1080300221A605A602F
:10025C009A60DA603B4600221A605A601D4B4FF0E0
:10026C0080421A601B4B41F63F725A60194B0022B8
:10027C009A60184B0922DA60164B00221A61154B52
:10028C0000229A61134803F015FA0346002B01D0A3
:10029C0000F0D0F84FF48053BB6007F10803194607
:1002AC000C4803F099FB0346002B01D000F0C2F878
:1002BC0000233B6000237B603B461946054803F056
:1002CC007BFD0346002B01D000F0B4F800BF1837BB
:1002DC00BD4680BD1001002080B588B000AF07F18D
:1002EC00100300221A605A609A60DA60444B9B69D2
:1002FC00434A43F010039361414B9B6903F0100395
:10030C00FB60FB683E4B9B693D4A43F020039361C5
:10031C003B4B9B6903F02003BB60BB68384B9B696C
:10032C00374A43F004039361354B9B6903F0040394
:10033C007B607B68324B9B69314A43F008039361C5
:10034C002F4B9B6903F008033B603B680022822122
:10035C002C4800F0CAFE002241F6E3712A4800F056
:10036C00C4FE00224FF2FF41284800F0BEFE4FF4BD
:10037C0000533B6100237B610123BB6107F1100338
:10038C001946204800F016FD82233B6101237B6156
:10039C000023BB610223FB6107F1100319461948C6
:1003AC0000F008FD41F6E3733B6101237B61002300
:1003BC00BB610223FB6107F110031946124800F0E0
:1003CC00F9FC0C233B6100237B610123BB6107F12A
:1003DC00100319460C4800F0EDFC4FF2FF433B6153
:1003EC0001237B610023BB610223FB6107F1100336
:1003FC001946064800F0DEFC00BF2037BD4680BD24
:10040C00001002400010014000080140000C0140A7
:10041C0080B582B000AF786004F04AF90349044813
:10042C0004F092F800BF0837BD4680BD0C000020D8
:10043C000000002080B400AF72B600BFFEE70000E1
:10044C0080B485B000AF154B9B69144A43F001038F
:10045C009361124B9B6903F00103BB60BB680F4BAC
:10046C00DB690E4A43F08053D3610C4BDB6903F01C
:10047C0080537B607B680A4B5B68FB60FB6823F0F6
:10048C00E063FB60FB6843F00073FB60044AFB68AD
:10049C00536000BF1437BD4680BC7047001002404B
:1004AC000000014080B58AB000AF786007F11403FA
:1004BC0000221A605A609A60DA607B681B68254AD1
:1004CC00934242D1244B9B69234A43F00803936126
:1004DC00214B9B6903F008033B613B694FF440736C
:1004EC007B611223BB6103233B6207F114031946A2
:1004FC001A4800F05FFC1A4B5B687B627B6A43F026
:10050C00E0637B627B6A43F002037B62144A7B6A82
:10051C005360114BDB69104A43F40013D3610E4B4B
:10052C00DB6903F40013FB60FB68002200211F2031
:10053C0000F083FB1F2000F09CFB002200212020F8
:10054C0000F07BFB202000F094FB00BF2837BD4659
:10055C0080BD00BF0054004000100240000C014060
:10056C000000014080B584B000AF78607B681B68E8
:10057C00B3F1804F13D10C4BDB690B4A43F00103F1
:10058C00D361094BDB6903F00103FB60FB680022BC
:10059C0000211C2000F051FB1C2000F06AFB00BF66
:1005AC001037BD4680BD00BF0010024080B400AFC4
:1005BC00FEE780B400AFFEE780B400AFFEE780B486
:1005CC0000AFFEE780B400AFFEE780B400AF00BF21
:1005DC00BD4680BC704780B400AF00BFBD4680BC38
:1005EC00704780B400AF00BFBD4680BC704780B57B
:1005FC0000AF00F02FFA00BF80BD000080B500AF47
:10060C00024803F0F9F800BF80BD00BF10010020C4
:10061C0080B500AF024800F080FF00BF80BD00BF76
:10062C00BC00002080B500AF024801F0E7F800BF25
:10063C0080BD00BFBC00002080B400AF00BFBD4631
:10064C0080BC704780B584B000AFF860B9601146CB
:10065C001A460B46FB801346BB803B7E022B12D006
:10066C00022B2ADC002B1BD0012B26D1FB8800226D
:10067C001946F86800F039FDBB8801221946B868A4
:10068C0000F033FD1AE0FB8801221946F86800F0EF
:10069C002CFDBB8800221946B86800F026FD0DE041
:1006AC00FB8801221946F86800F01FFDBB88012267
:1006BC001946B86800F019FD00E000BF00BF103704
:1006CC00BD4680BD80B582B002AF4FF47A71012077
:1006DC0003F0D0FF134B02221A6002230093202355
:1006EC00082211491048FFF7ADFF02230093402365
:1006FC0080220D490D48FFF7A5FF002300934FF40E
:10070C008063102208490848FFF79CFF00230093E0
:10071C000223012205490448FFF794FF00BFBD46A0
:10072C0080BD00BF58010020000C014000100140AA
:10073C0080B582B002AF874B1B68032B00F2D980C7
:10074C0001A252F823F000BF3B080008A1080008E2
:10075C0065070008CD0700087F4B1B68032B02DDE3
:10076C007D4B03221A607C4B1B68002B00F3C58069
:10077C00784B03221A60784B02221A6001230093F3
:10078C002023082275497548FFF75CFF002300936E
:10079C004FF48063102271497048FFF753FF012317
:1007AC000093402380226D496D48FFF74BFF0023D7
:1007BC000093022301226A496848FFF743FF9CE03B
:1007CC00654B1B68022B02DD634B02221A60624BE5
:1007DC001B68002B00F393805E4B00221A605E4B6B
:1007EC0005221A6000230093202308225B495B48F2
:1007FC00FFF728FF022300934FF480631022574920
:10080C005648FFF71FFF00230093402380225349D3
:10081C005348FFF717FF022300930223012250498C
:10082C004E48FFF70FFF4F4B03221A6067E04A4B0D
:10083C001B68052B02DD484B05221A60494B1B68CF
:10084C00002B5EDC434B01221A60464B02221A60DD
:10085C00002300932023082240494048FFF7F2FE72
:10086C00012300934FF4806310223C493B48FFF76F
:10087C00E9FE002300934023802238493848FFF7D3
:10088C00E1FE012300930223012235493348FFF78F
:10089C00D9FE36E0304B1B68002B34DC2D4B02228A
:1008AC001A602D4B03221A602E4B05221A6002236C
:1008BC0000932023082229492848FFF7C3FE002370
:1008CC0000934FF48063102224492448FFF7BAFEAA
:1008DC00022300934023802220492148FFF7B2FED7
:1008EC0000230093022301221D491C48FFF7AAFE96
:1008FC0009E0184B00221A6006E000BF04E000BFBC
:10090C0002E000BF00E000BF174B5B68012B0ED16B
:10091C004FF47A71012003F0ADFE124B1B68013BC2
:10092C00104A13600C4B1B68013B0B4A13600A4BBB
:10093C001B68013B1A460D490D4803F0ADFA094BF3
:10094C001B68013B1A460B490B4803F0A5FA00BF84
:10095C00BD4680BD5801002070000020000C0140F5
:10096C0000100140740000206801002034000020B9
:10097C00180000206000002044000020FFF75CFEFF
:10098C000B480C490C4A002302E0D458C4500433E1
:10099C00C4188C42F9D3094A094C002301E01360B6
:1009AC000432A242FBD303F0B3FEFFF7C9FB70473E
:1009BC000000002088000020C047000888000020AC
:1009CC00B8010020FEE7000080B500AF084B1B68A3
:1009DC00074A43F010031360032000F023F90020B2
:1009EC0000F008F8FFF72CFD0023184680BD00BF6F
:1009FC000020024080B582B000AF7860124B1A68BC
:100A0C00124B1B7819464FF47A73B3FBF1F3B2FB1C
:100A1C00F3F3184600F03BF90346002B01D00123F9
:100A2C000EE07B680F2B0AD8002279684FF0FF305C
:100A3C0000F003F9064A7B681360002300E00123F1
:100A4C0018460837BD4680BD140000207C000020ED
:100A5C007800002080B400AF054B1B781A46054B7C
:100A6C001B681344034A136000BFBD4680BC70472B
:100A7C007C0000205C01002080B400AF024B1B689E
:100A8C001846BD4680BC70475C01002080B485B020
:100A9C0000AF78607B6803F00703FB600C4BDB68EE
:100AAC00BB60BA684FF6FF031340BB60FB681A02C9
:100ABC00BB68134343F0BF6343F40033BB60044A89
:100ACC00BB68D36000BF1437BD4680BC704700BF05
:100ADC0000ED00E080B400AF044BDB681B0A03F0B0
:100AEC0007031846BD4680BC704700BF00ED00E010
:100AFC0080B483B000AF0346FB7197F90730002B2D
:100B0C000BDBFB7903F01F02064997F907305B09F1
:100B1C00012000FA02F241F8232000BF0C37BD4639
:100B2C0080BC704700E100E080B483B000AF0346A6
:100B3C003960FB7197F90730002B0ADB3B68DAB29E
:100B4C000C4997F907301201D2B20B4483F80023F9
:100B5C000AE03B68DAB20849FB7903F00F03043B67
:100B6C001201D2B20B441A7600BF0C37BD4680BCC2
:100B7C00704700BF00E100E000ED00E080B489B0F8
:100B8C0000AFF860B9607A60FB6803F00703FB61A3
:100B9C00FB69C3F10703042B28BF0423BB61FB696A
:100BAC000433062B02D9FB69033B00E000237B6175
:100BBC004FF0FF32BB6902FA03F3DA43BB681A4009
:100BCC007B699A404FF0FF317B6901FA03F3D943FB
:100BDC007B680B40134318462437BD4680BC7047D6
:100BEC0080B582B000AF78607B68013BB3F1807F49
:100BFC0001D301230FE00A4A7B68013B53600F21AC
:100C0C004FF0FF30FFF790FF054B00229A60044B2A
:100C1C0007221A60002318460837BD4680BD00BF66
:100C2C0010E000E080B582B000AF78607868FFF724
:100C3C002DFF00BF0837BD4680BD80B586B000AF24
:100C4C000346B9607A60FB7300237B61FFF742FFB8
:100C5C0078617A68B9687869FFF790FF024697F96E
:100C6C000F3011461846FFF75FFF00BF1837BD461F
:100C7C0080BD80B582B000AF0346FB7197F9073099
:100C8C001846FFF735FF00BF0837BD4680BD80B55D
:100C9C0082B000AF78607868FFF7A2FF0346184671
:100CAC000837BD4680BD000080B584B000AF7860C9
:100CBC000023FB737B6893F82130DBB2022B05D049
:100CCC007B6804229A630123FB7351E07B681B68E9
:100CDC001A687B681B6822F00E021A607B681B681E
:100CEC001A687B681B6822F001021A607B681B681B
:100CFC00224A934229D07B681B68214A934222D016
:100D0C007B681B681F4A93421AD07B681B681E4A7B
:100D1C00934212D07B681B681C4A93420AD07B68B2
:100D2C001B681B4A934202D14FF480130EE04FF024
:100D3C0080730BE04FF4803308E04FF4805305E0F0
:100D4C004FF4807302E0102300E00123114A53603A
:100D5C007B68012283F821207B68002283F8202005
:100D6C007B685B6B002B03D07B685B6B7868984768
:100D7C00FB7B18461037BD4680BD00BF0800024003
:100D8C001C00024030000240440002405800024067
:100D9C006C0002400000024080B483B000AF786069
:100DAC007B6893F82130DBB218460C37BD4680BC0B
:100DBC007047000080B48BB000AF786039600023BE
:100DCC007B6200233B6269E101227B6A02FA03F336
:100DDC00FB613B681B68FA691340BB61BA69FB692C
:100DEC009A4240F058813B685B689A4A93425ED0C5
:100DFC00984A934275D8984A934258D0964A93424F
:100E0C006FD8964A934252D0944A934269D8944AE6
:100E1C0093424CD0924A934263D8924A934246D022
:100E2C00904A93425DD8122B2AD8122B59D801A282
:100E3C0052F823F0BB0E0008950E0008A70E000810
:100E4C00E90E0008EF0E0008EF0E0008EF0E000888
:100E5C00EF0E0008EF0E0008EF0E0008EF0E000872
:100E6C00EF0E0008EF0E0008EF0E0008EF0E000862
:100E7C00EF0E0008EF0E00089D0E0008B10E0008E2
:100E8C00794A934213D02CE03B68DB683B6229E043
:100E9C003B68DB6804333B6224E03B68DB68083367
:100EAC003B621FE03B68DB680C333B621AE03B683B
:100EBC009B68002B02D104233B6213E03B689B68C8
:100ECC00012B05D108233B627B68FA691A6109E0A2
:100EDC0008233B627B68FA695A6103E000233B629A
:100EEC0000E000BFBB69FF2B01D87B6801E07B6889
:100EFC0004337B61BB69FF2B02D87B6A9B0002E049
:100F0C007B6A083B9B003B617B691A680F213B693C
:100F1C0001FA03F3DB431A40396A3B6901FA03F324
:100F2C001A437B691A603B685B6803F08053002BA3
:100F3C0000F0B1804D4B9B694C4A43F00103936127
:100F4C004A4B9B6903F00103BB60BB68484A7B6A50
:100F5C009B08023352F82330FB607B6A03F00303D7
:100F6C009B000F2202FA03F3DB43FA681340FB6089
:100F7C007B68404A934213D07B683F4A93420DD022
:100F8C007B683E4A934207D07B683D4A934201D12D
:100F9C00032306E0042304E0022302E0012300E023
:100FAC0000237A6A02F0030292009340FA6813431A
:100FBC00FB602F497B6A9B080233FA6841F82320B7
:100FCC003B685B6803F48013002B06D02D4B9A68AA
:100FDC002C49BB6913438B6006E02A4B9A68BB69AA
:100FEC00DB43284913408B603B685B6803F40013B8
:100FFC00002B06D0234BDA682249BB691343CB6024
:10100C0006E0204BDA68BB69DB431E491340CB601A
:10101C003B685B6803F40033002B06D0194B5A680D
:10102C001849BB6913434B6006E0164B5A68BB6901
:10103C00DB43144913404B603B685B6803F480331B
:10104C00002B21D00F4B1A680E49BB6913430B6060
:10105C0021E000BF0000321000003110000022100F
:10106C0000002110000012100000111000100240AE
:10107C000000014000080140000C0140001001403C
:10108C0000140140000401400B4B1A68BB69DB43A0
:10109C00094913400B607B6A01337B623B681A6819
:1010AC007B6A22FA03F3002B7FF48EAE00BF00BFE5
:1010BC002C37BD4680BC70470004014080B485B01D
:1010CC0000AF78600B467B807B689A687B88134006
:1010DC00002B02D00123FB7301E00023FB73FB7B8D
:1010EC0018461437BD4680BC704780B483B000AF3F
:1010FC0078600B467B8013467B707B78002B03D08B
:10110C007A887B681A6103E07B881A047B681A6111
:10111C0000BF0C37BD4680BC7047000080B584B062
:10112C0000AF78607B68002B01D101232BE17B6839
:10113C0093F83D30DBB2002B06D17B68002283F89C
:10114C003C207868FFF7AEF97B68242283F83D20B9
:10115C007B681B681A687B681B6822F001021A60A6
:10116C007B681B681A687B681B6842F400421A6033
:10117C007B681B681A687B681B6822F400421A6043
:10118C0002F066FAF8607B685B68814A934207D884
:10119C00FB68804A934294BF01230023DBB206E034
:1011AC00FB687D4A934294BF01230023DBB2002BE2
:1011BC0001D00123E7E0FB68784AA2FB03239B0CD8
:1011CC00BB607B681B685B6823F03F017B681B6816
:1011DC00BA680A435A607B681B681B6A23F03F019C
:1011EC007B685B686A4A934202D8BB68013309E0AA
:1011FC00BB684FF4967202FB03F3694AA2FB03230C
:10120C009B0901337A6812680B4313627B681B6875
:10121C00DB6923F44F4222F0FF027B685B685C4978
:10122C008B4219D8FB68591E7B685B685B00B1FB6D
:10123C00F3F3591C40F6FC730B40002B0AD0FB68EF
:10124C00591E7B685B685B00B1FBF3F30133C3F39E
:10125C000B0351E004234FE07B689B68002B11D1FA
:10126C00FB68581E7B6859680B465B000B44B0FB4F
:10127C00F3F30133C3F30B03002B0CBF0123002347
:10128C00DBB212E0FB68581E7B6859680B469B006A
:10129C000B4499000B44B0FBF3F30133C3F30B0382
:1012AC00002B0CBF01230023DBB2002B01D0012348
:1012BC0022E07B689B68002B0ED1FB68581E7B6874
:1012CC0059680B465B000B44B0FBF3F30133C3F3DB
:1012DC000B0343F400430FE0FB68581E7B6859680E
:1012EC000B469B000B4499000B44B0FBF3F301330A
:1012FC00C3F30B0343F44043796809681343CB6190
:10130C007B681B681B6823F0C0017B68DA697B680B
:10131C001B6A1A437B681B680A431A607B681B684C
:10132C009B6823F4034323F0FF037A6811697A68FE
:10133C00D26811437A6812680B4393607B681B6810
:10134C00DB6823F0FF017B685A697B689B691A4351
:10135C007B681B680A43DA607B681B681A687B68C9
:10136C001B6842F001021A607B6800221A647B68D9
:10137C00202283F83D207B6800221A637B680022C0
:10138C0083F83E20002318461037BD4680BD00BFB1
:10139C00A08601007F841E00FF083D0083DE1B43F6
:1013AC00D34D621080B483B000AF78607B681B684B
:1013BC005B6903F08003802B03D17B681B680022E0
:1013CC001A6100BF0C37BD4680BC704780B487B033
:1013DC0000AFF860B9603B601346FB80FB6893F884
:1013EC003D30DBB203F02803282B5BD1BB68002B0C
:1013FC0002D0FB88002B01D1012354E0FB6893F849
:10140C003C30012B01D102234DE0FB68012283F813
:10141C003C20FB681B681B6803F00103012B07D001
:10142C00FB681B681A68FB681B6842F001021A60B3
:10143C00FB681B681A68FB681B6822F400621A6060
:10144C00FB682A2283F83D20FB68202283F83E208B
:10145C00FB6800221A64FB68BA685A62FB68FA8857
:10146C005A85FB685B8D9AB2FB681A85FB683A68F3
:10147C00DA6200237B61FB681B685B697B61FB683C
:10148C001B689B697B617B69FB68002283F83C20AD
:10149C00FB681B685A68FB681B6842F4E0625A6080
:1014AC00002300E0022318461C37BD4680BC704761
:1014BC0080B483B000AF78607B6893F83D30DBB2CA
:1014CC00202B24D17B68282283F83D207B681B6865
:1014DC001B6803F00103012B07D07B681B681A689B
:1014EC007B681B6842F001021A607B681B681A68F3
:1014FC007B681B6842F480621A607B681B685A68C0
:10150C007B681B6842F440725A60002300E002239F
:10151C0018460C37BD4680BC704780B588B000AF0C
:10152C0078600023BB617B681B685B687B617B68B0
:10153C00DB6A3B617B6893F83E30FB737B6893F806
:10154C003D30BB73FB7B102B03D0FB7B402B40F05F
:10155C00C1807B681B689B69BB617B681B685B698E
:10156C00FB61FB6903F00103002B0DD13B69B3F563
:10157C002A0F03D03B69B3F12A4F01D1012300E0BC
:10158C000023012B00F03281FB6903F00103002BD7
:10159C000CD07B695B0A03F00103002B06D0786842
:1015AC0001F074FC786800F071FD92E0FB69DB08D7
:1015BC0003F00103002B09D07B695B0A03F00103E4
:1015CC00002B03D0786800F0E6FD82E0FB695B0835
:1015DC0003F00103002B09D07B695B0A03F00103C4
:1015EC00002B03D0786800F0FFFD72E0BB699B080C
:1015FC0003F00103002B3BD07B681B685B6803F492
:10160C000063B3F5006F00F0F380FB69DB0903F0B6
:10161C000103002B0FD07B699B0A03F00103002B05
:10162C0009D0FB699B0803F00103002B03D17868F8
:10163C0000F0C9F94DE0FB699B0803F00103002B96
:10164C0000F0D6807B695B0A03F00103002B00F0ED
:10165C00CF80BB7B212B03D1786800F050FAC7E018
:10166C00FB7B402B40F0C480786800F0BEFABFE0F2
:10167C007B681B685B6803F40063B3F5006F00F0D4
:10168C00B780FB699B0903F00103002B0FD07B692A
:10169C009B0A03F00103002B09D0FB699B0803F0A4
:1016AC000103002B03D1786800F037FB11E0FB69D4
:1016BC009B0803F00103002B00F09A807B695B0A06
:1016CC0003F00103002B00F09380786800F0EDFB31
:1016DC008EE08DE07B681B6C002B04D07B681B6854
:1016EC005B69FB6107E07B681B689B69BB617B687E
:1016FC001B685B69FB61FB695B0803F00103002B52
:10170C0012D07B695B0A03F00103002B0CD07B68C1
:10171C001B6C002B03D07B681B689B69BB61B96990
:10172C00786800F0B8FF66E0FB691B0903F0010361
:10173C00002B09D07B695B0A03F00103002B03D05B
:10174C00786800F0F3FF56E0BB7B212B02D0BB7B0B
:10175C00292B25D1FB69DB0903F00103002B0FD0EA
:10176C007B699B0A03F00103002B09D0FB699B08E2
:10177C0003F00103002B03D1786800F0D0FE39E0B0
:10178C00FB699B0803F00103002B33D07B695B0AD8
:10179C0003F00103002B2DD0786800F0FDFE29E04A
:1017AC00FB699B0903F00103002B0FD07B699B0A9B
:1017BC0003F00103002B09D0FB699B0803F0010324
:1017CC00002B03D1786800F007FF14E0FB699B083D
:1017DC0003F00103002B0ED07B695B0A03F00103BD
:1017EC00002B08D0786800F035FF04E000BF02E061
:1017FC0000BF00E000BF2037BD4680BD80B58AB079
:10180C0000AF78607B681B685B693B627B681B6818
:10181C005B68FB6100237B627B6893F83E30FB7650
:10182C003B6A1B0A03F00103002B16D0FB691B0A51
:10183C0003F00103002B10D07B6A43F001037B62A1
:10184C007B681B686FF480725A617B681B681A682E
:10185C007B681B6842F400421A603B6A5B0A03F027
:10186C000103002B0ED0FB691B0A03F00103002BB4
:10187C0008D07B6A43F002037B627B681B686FF4C1
:10188C0000725A613B6A9B0A03F00103002B3FD0A4
:10189C00FB691B0A03F00103002B39D0FB7EBB76DE
:1018AC007B685B8D9BB27B617B6893F83D30FB74EE
:1018BC007B681B6BFB60BB7E202B12D17B69002BE2
:1018CC000FD1FB7C212B08D0FB7C292B05D0FB7C7A
:1018DC00282B06D1FB68212B03D1786801F056F830
:1018EC0016E07B681B686FF480625A617B6A43F078
:1018FC0004037B62FB7E102B02D0FB7E402B07D1B6
:10190C007B681B681A687B681B6842F400721A605B
:10191C003B6ADB0A03F00103002B0ED0FB691B0AA8
:10192C0003F00103002B08D07B6A43F008037B62B1
:10193C007B681B686FF400625A617B6A002B08D0CD
:10194C007B681A6C7B6A1A437B681A64786801F0AE
:10195C0091F800BF2837BD4680BD80B483B000AF7E
:10196C00786000BF0C37BD4680BC704780B483B034
:10197C0000AF786000BF0C37BD4680BC704780B4A8
:10198C0083B000AF786000BF0C37BD4680BC704799
:10199C0080B483B000AF786000BF0C37BD4680BC0C
:1019AC00704780B483B000AF786000BF0C37BD4681
:1019BC0080BC704780B483B000AF786000BF0C3738
:1019CC00BD4680BC704780B584B000AF78607B6842
:1019DC0093F83D30FB737B6893F83E30BB737B68A8
:1019EC00DB6ABB607B681B8D002B50D1FB7B212BF2
:1019FC004DD1BB68082B1DD0BB68202B1AD0BB68FF
:101A0C0013F5803F16D07B681B685A687B681B688F
:101A1C0022F4E0625A607B6811221A637B68002210
:101A2C0083F83E207B68202283F83D207868FFF7FE
:101A3C0094FF60E07B681B685A687B681B6822F423
:101A4C00E0625A607B681B681A687B681B6842F40A
:101A5C0000721A607B6800221A637B68202283F86C
:101A6C003D207B6893F83E30DBB2402B07D17B687E
:101A7C00002283F83E207868FFF78AFF3BE07B6802
:101A8C00002283F83E207868FFF767FF33E0FB7B8A
:101A9C00212B05D0BB7B402B2DD1FB7B222B2AD1BC
:101AAC007B685B8D9BB2002B08D17B681B685A68E6
:101ABC007B681B6822F480625A601CE07B6893F898
:101ACC003E30DBB2402B03D1786800F08EF812E088
:101ADC007B685B6A1A787B681B681A617B685B6A37
:101AEC005A1C7B685A627B685B8D9BB2013B9AB235
:101AFC007B685A85FFE700BF1037BD4680BD80B5B7
:101B0C0084B000AF78607B68DB6AFB607B6893F81D
:101B1C003D30DBB2212B64D17B685B8D9BB2002BFB
:101B2C0012D07B685B6A1A787B681B681A617B68C9
:101B3C005B6A5A1C7B685A627B685B8D9BB2013B6B
:101B4C009AB27B685A854CE0FB68082B1DD0FB6869
:101B5C00202B1AD0FB6813F5803F16D07B681B68CE
:101B6C005A687B681B6822F4E0625A607B68112219
:101B7C001A637B68002283F83E207B68202283F85E
:101B8C003D207868FFF7E9FE2BE07B681B685A68FC
:101B9C007B681B6822F4E0625A607B681B681A68D9
:101BAC007B681B6842F400721A607B6800221A631F
:101BBC007B68202283F83D207B6893F83E30DBB2B3
:101BCC00402B07D17B68002283F83E207868FFF712
:101BDC00DFFE06E07B68002283F83E207868FFF782
:101BEC00BCFE00BF1037BD4680BD80B584B000AFD1
:101BFC0078607B6893F83D30FB737B681B6D002B22
:101C0C001DD17B68DB6C012B0BD17B689B6CDAB232
:101C1C007B681B681A617B681B6D9A1C7B681A6554
:101C2C0077E07B689B6C9BB21B12DAB27B681B68FB
:101C3C001A617B681B6D5A1C7B681A6569E07B68AE
:101C4C001B6D012B0BD17B689B6CDAB27B681B681C
:101C5C001A617B681B6D5A1C7B681A6559E07B689E
:101C6C001B6D022B52D1FB7B222B0DD17B681B6889
:101C7C001A687B681B6842F480721A607B681B6D63
:101C8C005A1C7B681A6544E07B685B8D9BB2002B09
:101C9C0015D0FB7B212B12D17B685B6A1A787B6891
:101CAC001B681A617B685B6A5A1C7B685A627B688A
:101CBC005B8D9BB2013B9AB27B685A8529E07B68AD
:101CCC005B8D9BB2002B24D1FB7B212B21D17B681C
:101CDC001B685A687B681B6822F4E0625A607B6858
:101CEC001B681A687B681B6842F400721A607B6878
:101CFC0000221A637B68202283F83D207B68002237
:101D0C0083F83E207868FFF743FE02E07868FFF71F
:101D1C0049FB00BF1037BD4680BD80B584B000AF15
:101D2C0078607B6893F83D30DBB2222B40F0B980B1
:101D3C007B68DB6AFB607B685B8D9BB2BB60BB68BE
:101D4C00032B21D97B681B681A697B685B6AD2B24A
:101D5C001A707B685B6A5A1C7B685A627B685B8D65
:101D6C009BB2013B9AB27B685A857B685B8D9BB2B8
:101D7C00032B40F096807B681B685A687B681B6855
:101D8C0022F480625A608CE07B68DB6A022B7FD085
:101D9C00BB68012B02D0BB68002B79D1786801F0AD
:101DAC0043F80346002B4CD17B681B681A687B6890
:101DBC001B6822F480621A607B681B685A687B6817
:101DCC001B6822F4E0625A607B681B681A697B68A6
:101DDC005B6AD2B21A707B685B6A5A1C7B685A6267
:101DEC007B685B8D9BB2013B9AB27B685A857B68A2
:101DFC00202283F83D207B6893F83E30DBB2402BE9
:101E0C000AD17B68002283F83E207B6800221A638B
:101E1C007868FFF7C6FD44E07B68002283F83E201B
:101E2C00FB68082B02D0FB68202B03D17B680022B7
:101E3C001A6302E07B6812221A637868FFF796FD3A
:101E4C002FE07B681B685A687B681B6822F4E06291
:101E5C005A607B681B681A697B685B6AD2B21A701D
:101E6C007B685B6A5A1C7B685A627B685B8D9BB291
:101E7C00013B9AB27B685A857B68202283F83D200F
:101E8C007B68002283F83E20786802F052FB08E061
:101E9C007B681B685A687B681B6822F480625A60F6
:101EAC00FFE700BF1037BD4680BD80B584B000AFE2
:101EBC0078607B68DB6AFB607B685B8D9BB2042B74
:101ECC001BD17B681B685A687B681B6822F4806294
:101EDC005A607B681B681A697B685B6AD2B21A709D
:101EEC007B685B6A5A1C7B685A627B685B8D9BB211
:101EFC00013B9AB27B685A85C4E07B685B8D9BB2D0
:101F0C00032B29D17B681B685A687B681B6822F4F9
:101F1C0080625A60FB68042B0AD0FB68022B07D046
:101F2C007B681B681A687B681B6822F480621A60E5
:101F3C007B681B681A697B685B6AD2B21A707B6813
:101F4C005B6A5A1C7B685A627B685B8D9BB2013B57
:101F5C009AB27B685A8595E07B685B8D9BB2022BAD
:101F6C007DD1FB68012B02D0FB68102B08D17B685C
:101F7C001B681A687B681B6822F480621A6016E082
:101F8C00FB68042B02D0FB68022B08D17B681B6812
:101F9C001A687B681B6842F480621A6007E07B68F1
:101FAC001B681A687B681B6842F400721A607B68B5
:101FBC001B681A697B685B6AD2B21A707B685B6AB1
:101FCC005A1C7B685A627B685B8D9BB2013B9AB250
:101FDC007B685A857B681B681A697B685B6AD2B21E
:101FEC001A707B685B6A5A1C7B685A627B685B8DD3
:101FFC009BB2013B9AB27B685A857B681B685A6816
:10200C007B681B6822F440725A607B68202283F83C
:10201C003D207B6893F83E30DBB2402B0AD17B68C5
:10202C00002283F83E207B6800221A637868FFF751
:10203C00B8FC27E07B68002283F83E20FB68082B65
:10204C0002D0FB68202B03D17B6800221A6302E0CC
:10205C007B6812221A637868FFF788FC12E07B68B1
:10206C001B681A697B685B6AD2B21A707B685B6A00
:10207C005A1C7B685A627B685B8D9BB2013B9AB29F
:10208C007B685A8500BF1037BD4680BD80B483B0D5
:10209C0000AF78607B6893F83E30DBB2402B17D1F1
:1020AC007B681B6D002B09D17B685B6CDBB21A461D
:1020BC007B681B6802F0FE021A6167E07B685B6C50
:1020CC00DBB243F00103DAB27B681B681A615DE096
:1020DC007B681B69B3F5804F33D17B6893F83D3037
:1020EC00DBB2212B09D17B685B6CDBB21A467B68B7
:1020FC001B6802F0FE021A6108E07B685B6CDBB2C5
:10210C0043F00103DAB27B681B681A617B685B6B76
:10211C00002B04D07B685B6B9B6A002B08D17B681F
:10212C009B6B002B32D07B689B6B9B6A002B2DD05A
:10213C007B681B685A687B681B6842F400625A60B3
:10214C0024E07B681B6D002B0ED17B685B6C9BB213
:10215C00DB11DBB203F00603DBB263F00F03DAB280
:10216C007B681B681A6111E07B681B6D012B0DD11C
:10217C007B685B6C9BB2DB11DBB203F00603DBB25A
:10218C0063F00E03DAB27B681B681A6100BF0C3770
:10219C00BD4680BC704780B483B000AF78607B686C
:1021AC005B6CDAB27B681B681A617B685B6B002B1B
:1021BC0004D07B685B6B9B6A002B08D17B689B6BA4
:1021CC00002B0CD07B689B6B9B6A002B07D07B6829
:1021DC001B685A687B681B6842F400625A6000BF37
:1021EC000C37BD4680BC704780B491B000AF7860AE
:1021FC007B6893F83E3087F83F307B68DB6ABB63C3
:10220C007B681B6B7B637B6893F83D30DBB2222BC6
:10221C0040F074817B681B6D002B0FD197F83F3019
:10222C00402B0BD100233B637B681B685B693B63D2
:10223C007B681B689B693B633B6B6BE17B681B6D2D
:10224C00002B1DD17B681B69B3F5404F18D10023BF
:10225C00FB627B681B685B69FB627B681B689B6924
:10226C00FB62FB6A7B681B681A687B681B6842F41C
:10227C0080721A607B681B6D5A1C7B681A6549E179
:10228C007B685B8D9BB2002B13D10023BB627B68F8
:10229C001B685B69BB627B681B689B69BB62BB6A22
:1022AC007B681B681A687B681B6842F400721A60B2
:1022BC0020E17B685B8D9BB2012B40F08A80BB6B6D
:1022CC0013F5803F37D17B681B681A687B681B68E5
:1022DC0022F480621A607B681B685B6803F40063FD
:1022EC00B3F5006F13D17B681B681A687B681B6899
:1022FC0022F480621A6000237B627B681B685B6936
:10230C007B627B681B689B697B627B6AF2E00023C3
:10231C003B627B681B685B693B627B681B689B69E3
:10232C003B623B6A7B681B681A687B681B6842F4DB
:10233C0000721A60DEE0BB6B082B2ED0BB6B202B1F
:10234C002BD07B6B122B02D1BB6B012B25D1BB6B22
:10235C00042B0ED0BB6B022B0BD0BB6B102B08D0FD
:10236C007B681B681A687B681B6822F480621A60A1
:10237C0007E07B681B681A687B681B6842F4806204
:10238C001A600023FB617B681B685B69FB617B68DF
:10239C001B689B69FB61FB69ACE07B681B681A6876
:1023AC007B681B6822F480621A600023BB617B6827
:1023BC001B685B69BB617B681B689B69BB61BB6904
:1023CC007B681B681A687B681B6842F400721A6091
:1023DC0090E07B685B8D9BB2022B58D1BB6B042BBE
:1023EC0021D0BB6B022B1ED0BB6B102B1BD07B6880
:1023FC001B681A687B681B6842F400621A60002331
:10240C007B617B681B685B697B617B681B689B6974
:10241C007B617B697B681B681A687B681B6822F48C
:10242C0080621A6012E07B681B681A687B681B6804
:10243C0042F480621A6000233B617B681B685B6915
:10244C003B617B681B689B693B613B697B681B68D4
:10245C005B6803F40063B3F5006F4BD1BB6B13F5F2
:10246C00803F0BD0BB6B012B08D0BB6B082B05D06E
:10247C00BB6B102B02D0BB6B202B3BD17B681B683A
:10248C005A687B681B6842F480525A6032E07B6861
:10249C001B681A687B681B6842F480621A607B6850
:1024AC001B685B6803F40063B3F5006F17D1BB6B5B
:1024BC0013F5803F0BD0BB6B012B08D0BB6B082BEB
:1024CC0005D0BB6B102B02D0BB6B202B07D17B68CC
:1024DC001B685A687B681B6842F480525A60002360
:1024EC00FB607B681B685B69FB607B681B689B6996
:1024FC00FB60FB687B6800221A650BE00023BB6065
:10250C007B681B685B69BB607B681B689B69BB60F5
:10251C00BB68FFE700BF4437BD4680BC704780B541
:10252C0084B000AF78607B6893F83D30FB737B68B8
:10253C005B8D9BB2002B2BD07B685B6A1A787B6817
:10254C001B681A617B685B6A5A1C7B685A627B68E1
:10255C005B8D9BB2013B9AB27B685A857B685B8D25
:10256C009BB2002B14D1FB7B292B11D17B681B68F0
:10257C005A687B681B6822F480625A607B6821224F
:10258C001A637B68282283F83D207868FFF7F7F9F7
:10259C0000BF1037BD4680BD80B483B000AF7860FB
:1025AC007B685B8D9BB2002B11D07B685B6A1A78C1
:1025BC007B681B681A617B685B6A5A1C7B685A6271
:1025CC007B685B8D9BB2013B9AB27B685A8500BFDE
:1025DC000C37BD4680BC704780B584B000AF7860C6
:1025EC007B6893F83D30FB737B685B8D9BB2002B53
:1025FC002CD07B681B681A697B685B6AD2B21A7034
:10260C007B685B6A5A1C7B685A627B685B8D9BB2E9
:10261C00013B9AB27B685A857B685B8D9BB2002B21
:10262C0014D1FB7B2A2B11D17B681B685A687B6801
:10263C001B6822F480625A607B6822221A637B68D2
:10264C00282283F83D20786801F06AFF00BF10371C
:10265C00BD4680BD80B483B000AF78607B685B8D75
:10266C009BB2002B12D07B681B681A697B685B6A73
:10267C00D2B21A707B685B6A5A1C7B685A627B68A0
:10268C005B8D9BB2013B9AB27B685A8500BF0C37BD
:10269C00BD4680BC704780B584B000AF78603960AF
:1026AC000023FB737B6893F83D30DBB203F0280307
:1026BC00282B27D17B681B685A687B681B6822F41F
:1026CC0080625A603B689B0803F00103002B01D128
:1026DC000123FB733B68DB0903F00103002B03D1DF
:1026EC007B68DB68BB8102E07B689B69BB817B6894
:1026FC00002283F83C20BA89FB7B1946786801F0EC
:10270C00F5FE0EE00023BB607B681B685B69BB6059
:10271C007B681B689B69BB60BB687B68002283F885
:10272C003C2000BF1037BD4680BD000080B584B092
:10273C0000AF78607B6893F83D30FB737B681B6857
:10274C005A687B681B6822F4E0625A600023BB6005
:10275C007B681B685B69BB607B681B681A687B685D
:10276C001B6842F001021A60BB687B681B681A6820
:10277C007B681B6822F480621A607B681B685B684C
:10278C0003F40063B3F5006F72D1FB7B222B02D0F4
:10279C00FB7B2A2B35D17B689B6B1B685B689AB2E1
:1027AC007B685A857B685B8D9BB2002B05D07B6860
:1027BC001B6C43F004027B681A647B681B685A68C4
:1027CC007B681B6822F400625A607B689B6B18461E
:1027DC00FEF7E2FA0346012B49D07B689B6B694AF2
:1027EC005A637B689B6B1846FEF75EFA0346002B18
:1027FC003DD07B689B6B5B6B7A68926B10469847FD
:10280C0035E07B685B6B1B685B689AB27B685A85AA
:10281C007B685B8D9BB2002B05D07B681B6C43F0F7
:10282C0004027B681A647B681B685A687B681B68A7
:10283C0022F400625A607B685B6B1846FEF7ACFAB8
:10284C000346012B14D07B685B6B4E4A5A637B6842
:10285C005B6B1846FEF728FA0346002B08D07B6802
:10286C005B6B5B6B7A68526B1046984700E000BF5D
:10287C007B685B8D9BB2002B3ED07B681B685B69D1
:10288C0003F00403042B12D17B681B681A697B6864
:10289C005B6AD2B21A707B685B6A5A1C7B685A629C
:1028AC007B685B8D9BB2013B9AB27B685A857B68D7
:1028BC001B685B6903F04003402B12D17B681B68DB
:1028CC001A697B685B6AD2B21A707B685B6A5A1CA5
:1028DC007B685A627B685B8D9BB2013B9AB27B68CA
:1028EC005A857B685B8D9BB2002B05D07B681B6C7B
:1028FC0043F004027B681A647B681B6C002B03D0CA
:10290C00786800F0B7F839E0FB7B2A2B09D17B689B
:10291C0000221A637B68282283F83D20786801F036
:10292C00FFFD7B6893F83D30DBB2282B11D17B681F
:10293C00154ADA627B6800221A637B68202283F8CE
:10294C003D207B68002283F83E20786801F0C2FDB0
:10295C0014E07B681B6B222B02D0FB7B222B0DD14E
:10296C007B6800221A637B68202283F83D207B68F9
:10297C00002283F83E20786801F0D2FD00BF1037AA
:10298C00BD4680BDE52C00080000FFFF80B584B07B
:10299C0000AF78607B6893F83D30FB737B68DB6A33
:1029AC00BB60BB68082B02D0BB68202B29D1FB7BFA
:1029BC00282B26D17B682E4ADA627B681B685A6802
:1029CC007B681B6822F4E0625A607B681B686FF4BA
:1029DC0080625A617B681B681A687B681B6822F4EA
:1029EC0080621A607B6800221A637B68202283F85D
:1029FC003D207B68002283F83E20786801F06AFD58
:102A0C0031E0FB7B212B29D17B68194ADA627B6888
:102A1C0021221A637B68202283F83D207B680022E8
:102A2C0083F83E207B681B685A687B681B6822F41D
:102A3C00E0625A607B681B686FF480625A617B6845
:102A4C001B681A687B681B6822F480621A607868BD
:102A5C00FEF7A8FC7868FEF792FF04E07B681B6821
:102A6C006FF480625A6100BF1037BD4680BD00BF55
:102A7C000000FFFF80B584B000AF78607B6893F8EE
:102A8C003D30FB737B6893F83E30BB73BB7B102BE4
:102A9C0002D0BB7B402B0AD1FB7B222B07D17B685E
:102AAC001B681A687B681B6822F400621A60FB7B47
:102ABC0003F02803282B07D17B6800221A637B685C
:102ACC00282283F83D2015E07B681B685B6803F4C3
:102ADC000063B3F5006F0AD0FB7B602B07D07B68DB
:102AEC00202283F83D207B68002283F83E207B68FF
:102AFC0000221A637B681B685B6803F40063B3F500
:102B0C00006F62D17B681B685A687B681B6822F473
:102B1C0000625A607B685B6B93F82130DBB2012B4F
:102B2C0020D07B685B6B6A4A5A637B685B6B184688
:102B3C00FEF7BAF80346002B00F089807B681B680F
:102B4C001A687B681B6822F001021A607B682022DD
:102B5C0083F83D207B685B6B5B6B7A68526B10462D
:102B6C00984774E07B689B6B594A5A637B689B6BF4
:102B7C001846FEF799F80346002B68D07B681B6853
:102B8C005B6903F04003402B0BD17B681B681A690F
:102B9C007B685B6AD2B21A707B685B6A5A1C7B6872
:102BAC005A627B681B681A687B681B6822F00102FA
:102BBC001A607B68202283F83D207B689B6B5B6BE3
:102BCC007A68926B1046984741E07B6893F83D30E9
:102BDC00DBB2602B25D17B68202283F83D207B68FB
:102BEC0000221A647B681B685B6903F04003402B6E
:102BFC000BD17B681B681A697B685B6AD2B21A704E
:102C0C007B685B6A5A1C7B685A627B681B681A6813
:102C1C007B681B6822F001021A607868FEF7CAFE16
:102C2C0015E07B681B685B6903F04003402B0BD1FC
:102C3C007B681B681A697B685B6AD2B21A707B6806
:102C4C005B6A5A1C7B685A62786801F072FC7B687C
:102C5C001B6CBB60BB6803F00103002B0ED1BB687F
:102C6C0003F00203002B09D1BB6803F00403002B13
:102C7C0004D1BB6803F00803002B07D07B681B68EA
:102C8C005A687B681B6822F4E0625A607B6893F890
:102C9C003D30FB737B681B6C03F00403042B13D1D6
:102CAC00FB7B282B10D17B680A4ADA627B680022F6
:102CBC001A637B68202283F83D207B68002283F80E
:102CCC003E20786801F006FC00BF1037BD4680BD81
:102CDC00E52C00080000FFFF80B586B000AF7860DF
:102CEC000023FB607B685B6A7B617B6993F83D30FA
:102CFC00FB744B4B1B68DB084A4AA2FB03231A0AE2
:102D0C0013469B001344DA00D31AFB60FB68002BBC
:102D1C0006D17B691B6C43F020027B691A640AE0C4
:102D2C00FB68013BFB607B691B681B6803F4007349
:102D3C00B3F5007FEAD07B695B6B002B03D07B691A
:102D4C005B6B00229A627B699B6B002B03D07B69C7
:102D5C009B6B00229A627B691B681A687B691B68F3
:102D6C0022F480621A607B6900225A857B695B6B56
:102D7C00002B03D07B695B6B00225A637B699B6BD6
:102D8C00002B03D07B699B6B00225A637B691B6809
:102D9C001A687B691B6822F001021A607B6993F840
:102DAC003D30DBB2602B0ED17B69202283F83D20B5
:102DBC007B69002283F83E207B6900221A647869C3
:102DCC00FEF7F8FD27E0FB7C03F02803282B17D136
:102DDC007B691B681A687B691B6842F001021A60E8
:102DEC007B691B681A687B691B6842F480621A60F5
:102DFC007B6900221A637B69282283F83D2007E057
:102E0C007B69202283F83D207B69002283F83E20D9
:102E1C00786901F08EFB00BF1837BD4680BD00BF3E
:102E2C001400002089B5F81480B485B000AF786028
:102E3C000023FB60134B1B68DB08134AA2FB032324
:102E4C001A0A13469B001344FB60FB68013BFB60B2
:102E5C00FB68002B07D17B681B6C43F020027B685E
:102E6C001A64012308E07B681B681B6803F4007379
:102E7C00B3F5007FE9D0002318461437BD4680BC5B
:102E8C00704700BF1400002089B5F81480B483B0DB
:102E9C0000AF78607B68DB6AB3F52A0F03D17B68DF
:102EAC000122DA6207E07B68DB6AB3F12A4F02D1B8
:102EBC007B680822DA6200BF0C37BD4680BC7047C5
:102ECC0080B586B000AF78607B68002B01D1012300
:102EDC006CE27B681B6803F00103002B00F0878019
:102EEC00924B5B6803F00C03042B0CD08F4B5B688C
:102EFC0003F00C03082B12D18C4B5B6803F480336A
:102F0C00B3F5803F0BD1894B1B6803F40033002BC6
:102F1C006CD07B685B68002B68D1012346E27B6830
:102F2C005B68B3F5803F06D1804B1B687F4A43F446
:102F3C00803313602EE07B685B68002B0CD17B4BDD
:102F4C001B687A4A23F480331360784B1B68774AEA
:102F5C0023F4802313601DE07B685B68B3F5A02F1E
:102F6C000CD1724B1B68714A43F4802313606F4B76
:102F7C001B686E4A43F4803313600BE06B4B1B6889
:102F8C006A4A23F480331360684B1B68674A23F446
:102F9C00802313607B685B68002B13D0FDF76CFDFE
:102FAC00386108E0FDF768FD02463B69D31A642BD3
:102FBC0001D90323FAE15D4B1B6803F40033002BAA
:102FCC00F0D014E0FDF758FD386108E0FDF754FD32
:102FDC0002463B69D31A642B01D90323E6E1534B18
:102FEC001B6803F40033002BF0D100E000BF7B68BA
:102FFC001B6803F00203002B63D04C4B5B6803F09F
:10300C000C03002B0BD0494B5B6803F00C03082B13
:10301C001CD1464B5B6803F48033002B16D1434B19
:10302C001B6803F00203002B05D07B681B69012B86
:10303C0001D00123BAE13D4B1B6823F0F8027B68F9
:10304C005B69DB00394913430B603AE07B681B6911
:10305C00002B20D0364B01221A60FDF70DFD386194
:10306C0008E0FDF709FD02463B69D31A022B01D992
:10307C0003239BE12D4B1B6803F00203002BF0D0C4
:10308C002A4B1B6823F0F8027B685B69DB0027493D
:10309C0013430B6015E0264B00221A60FDF7ECFC85
:1030AC00386108E0FDF7E8FC02463B69D31A022BB5
:1030BC0001D903237AE11D4B1B6803F00203002B9B
:1030CC00F0D17B681B6803F00803002B3AD07B68B7
:1030DC009B69002B19D0174B01221A60FDF7CCFC11
:1030EC00386108E0FDF7C8FC02463B69D31A022B95
:1030FC0001D903235AE10D4B5B6A03F00203002B49
:10310C00F0D0012000F0B8FA1CE00A4B00221A6043
:10311C00FDF7B2FC38610FE0FDF7AEFC02463B69EF
:10312C00D31A022B08D9032340E100BF0010024040
:10313C0000004242800442429E4B5B6A03F0020351
:10314C00002BE9D17B681B6803F00403002B00F013
:10315C00A6800023FB75974BDB6903F08053002B93
:10316C000DD1944BDB69934A43F08053D361914B5F
:10317C00DB6903F08053BB60BB680123FB758E4B8E
:10318C001B6803F48073002B18D18B4B1B688A4A85
:10319C0043F480731360FDF76FFC386108E0FDF7B2
:1031AC006BFC02463B69D31A642B01D90323FDE067
:1031BC00814B1B6803F48073002BF0D07B68DB68B9
:1031CC00012B06D17B4B1B6A7A4A43F00103136235
:1031DC002DE07B68DB68002B0CD1764B1B6A754AA3
:1031EC0023F001031362734B1B6A724A23F004032E
:1031FC0013621CE07B68DB68052B0CD16D4B1B6AE2
:10320C006C4A43F0040313626A4B1B6A694A43F02D
:10321C00010313620BE0674B1B6A664A23F0010340
:10322C001362644B1B6A634A23F0040313627B68CA
:10323C00DB68002B15D0FDF71FFC38610AE0FDF7A9
:10324C001BFC02463B69D31A41F28832934201D9E6
:10325C000323ABE0574B1B6A03F00203002BEED0A9
:10326C0014E0FDF709FC38610AE0FDF705FC0246A5
:10327C003B69D31A41F28832934201D9032395E07A
:10328C004C4B1B6A03F00203002BEED1FB7D012B90
:10329C0005D1484BDB69474A23F08053D3617B68E7
:1032AC00DB69002B00F08180424B5B6803F00C0360
:1032BC00082B61D07B68DB69022B46D13F4B002287
:1032CC001A60FDF7D9FB386108E0FDF7D5FB024623
:1032DC003B69D31A022B01D9032367E0354B1B68DA
:1032EC0003F00073002BF0D17B681B6AB3F5803FB1
:1032FC0008D1304B5B6823F400327B689B682D4906
:10330C0013434B602B4B5B6823F474127B68196A74
:10331C007B685B6A0B43274913434B60274B0122A5
:10332C001A60FDF7A9FB386108E0FDF7A5FB024622
:10333C003B69D31A022B01D9032337E01D4B1B68C1
:10334C0003F00073002BF0D02FE01C4B00221A600E
:10335C00FDF792FB386108E0FDF78EFB02463B69F6
:10336C00D31A022B01D9032320E0124B1B6803F064
:10337C000073002BF0D118E07B68DB69012B01D1C5
:10338C00012313E00B4B5B68FB60FB6803F480329A
:10339C007B681B6A9A4206D1FB6803F470127B6847
:1033AC005B6A9A4201D0012300E0002318461837CB
:1033BC00BD4680BD001002400070004060004242DB
:1033CC0080B584B000AF786039607B68002B01D188
:1033DC000123D0E06A4B1B6803F007033A689A425A
:1033EC0010D9674B1B6823F0070265493B681343F0
:1033FC000B60634B1B6803F007033A689A4201D0D9
:10340C000123B8E07B681B6803F00203002B20D07B
:10341C007B681B6803F00403002B05D0594B5B68D9
:10342C00584A43F4E06353607B681B6803F008035D
:10343C00002B05D0534B5B68524A43F460535360E6
:10344C00504B5B6823F0F0027B689B684D4913433B
:10345C004B607B681B6803F00103002B40D07B683A
:10346C005B68012B07D1474B1B6803F40033002B1F
:10347C0015D101237FE07B685B68022B07D1414BA0
:10348C001B6803F00073002B09D1012373E03D4B43
:10349C001B6803F00203002B01D101236BE0394BB5
:1034AC005B6823F003027B685B68364913434B600F
:1034BC00FDF7E2FAF8600AE0FDF7DEFA0246FB6877
:1034CC00D31A41F28832934201D9032353E02D4B96
:1034DC005B6803F00C027B685B689B009A42EBD143
:1034EC00274B1B6803F007033A689A4210D2244B0F
:1034FC001B6823F0070222493B6813430B60204BE7
:10350C001B6803F007033A689A4201D0012332E0AA
:10351C007B681B6803F00403002B08D0194B5B6815
:10352C0023F4E0627B68DB68164913434B607B68CD
:10353C001B6803F00803002B09D0124B5B6823F4C3
:10354C0060527B681B69DB000E4913434B6000F033
:10355C0021F802460B4B5B681B0903F00F030A4969
:10356C00CB5C22FA03F3094A1360094B1B6818461B
:10357C00FDF740FA002318461037BD4680BD00BF4A
:10358C0000200240001002408C470008140000206C
:10359C007800002080B487B000AF0023FB600023CC
:1035AC00BB6000237B6100237B6000233B611E4BCF
:1035BC005B68FB60FB6803F00C03042B02D0082B48
:1035CC0003D027E0194B3B6127E0FB689B0C03F011
:1035DC000F03174AD35C7B60FB6803F48033002B2A
:1035EC0010D0114B5B685B0C03F00103114AD35CE8
:1035FC00BB607B680D4A02FB03F2BB68B2FBF3F3C2
:10360C007B6104E07B680C4A02FB03F37B617B6902
:10361C003B6102E0054B3B6100BF3B6918461C3720
:10362C00BD4680BC704700BF0010024000127A00FB
:10363C00A4470008B447000800093D0080B400AF5F
:10364C00024B1B681846BD4680BC70471400002016
:10365C0080B500AFFFF7F2FF0246054B5B681B0A13
:10366C0003F007030349CB5C22FA03F3184680BD31
:10367C00001002409C47000880B485B000AF786011
:10368C000A4B1B680A4AA2FB03235B0A7A6802FBFB
:10369C0003F3FB6000BFFB685A1EFA60002BF9D1E4
:1036AC0000BF00BF1437BD4680BC7047140000201B
:1036BC00D34D621080B582B000AF78607B68002B70
:1036CC0001D1012341E07B6893F83D30DBB2002B44
:1036DC0006D17B68002283F83C207868FCF742FF17
:1036EC007B68022283F83D207B681A687B68043370
:1036FC001946104600F05CFA7B68012283F84620DC
:10370C007B68012283F83E207B68012283F83F20EE
:10371C007B68012283F840207B68012283F84120DA
:10372C007B68012283F842207B68012283F84320C6
:10373C007B68012283F844207B68012283F84520B2
:10374C007B68012283F83D20002318460837BD46CC
:10375C0080BD000080B485B000AF78607B6893F8C2
:10376C003D30DBB2012B01D001233AE07B68022211
:10377C0083F83D207B681B68DA687B681B6842F025
:10378C000102DA607B681B68184A93420ED07B6892
:10379C001B68B3F1804F09D07B681B68144A9342B5
:1037AC0004D07B681B68134A934211D17B681B6859
:1037BC009B6803F00703FB60FB68062B10D07B684B
:1037CC001B681A687B681B6842F001021A6007E0EC
:1037DC007B681B681A687B681B6842F001021A60E0
:1037EC00002318461437BD4680BC7047002C01409E
:1037FC00000400400008004080B584B000AF786041
:10380C007B681B68DB68FB607B681B681B69BB60A3
:10381C00BB6803F00203002B20D0FB6803F002030B
:10382C00002B1BD07B681B686FF002021A617B684F
:10383C0001221A777B681B689B6903F00303002B3A
:10384C0003D0786800F098F905E0786800F08BF9FF
:10385C00786800F09AF97B6800221A77BB6803F04D
:10386C000403002B20D0FB6803F00403002B1BD0B7
:10387C007B681B686FF004021A617B6802221A775E
:10388C007B681B689B6903F44073002B03D078683A
:10389C0000F072F905E0786800F065F9786800F0DE
:1038AC0074F97B6800221A77BB6803F00803002BBD
:1038BC0020D0FB6803F00803002B1BD07B681B682F
:1038CC006FF008021A617B6804221A777B681B6808
:1038DC00DB6903F00303002B03D0786800F04CF98C
:1038EC0005E0786800F03FF9786800F04EF97B68E5
:1038FC0000221A77BB6803F01003002B20D0FB6862
:10390C0003F01003002B1BD07B681B686FF01002B8
:10391C001A617B6808221A777B681B68DB6903F4E1
:10392C004073002B03D0786800F026F905E0786826
:10393C0000F019F9786800F028F97B6800221A77F2
:10394C00BB6803F00103002B0CD0FB6803F00103F0
:10395C00002B07D07B681B686FF001021A61786836
:10396C00FCF756FDBB6803F08003002B0CD0FB6802
:10397C0003F08003002B07D07B681B686FF080027C
:10398C001A61786800F07FFABB6803F04003002BE3
:10399C000CD0FB6803F04003002B07D07B681B683E
:1039AC006FF040021A61786800F0F8F8BB6803F019
:1039BC002003002B0CD0FB6803F02003002B07D056
:1039CC007B681B686FF020021A61786800F052FA6D
:1039DC0000BF1037BD4680BD80B584B000AF7860A5
:1039EC0039600023FB737B6893F83C30012B01D1C9
:1039FC000223B4E07B68012283F83C207B6802221E
:103A0C0083F83D207B681B689B68BB60BB6823F018
:103A1C007703BB60BB6823F47F43BB607B681B6888
:103A2C00BA689A603B681B68B3F5005F3ED0B3F58B
:103A3C00005F00F28780B3F5805F00F08680B3F5FD
:103A4C00805F7FD8702B1AD0702B7BD8602B50D016
:103A5C00602B77D8502B3CD0502B73D8402B58D0A0
:103A6C00402B6FD8302B64D0302B6BD8202B60D0F0
:103A7C00202B67D8002B5CD0102B5AD062E07B68CF
:103A8C0018683B6899683B685A683B68DB6800F0CB
:103A9C0074F97B681B689B68BB60BB6843F0770359
:103AAC00BB607B681B68BA689A604FE07B681868DB
:103ABC003B6899683B685A683B68DB6800F05DF9C5
:103ACC007B681B689A687B681B6842F480429A602A
:103ADC003CE07B6818683B6859683B68DB681A46B1
:103AEC0000F0D4F87B681B685021184600F02BF9C5
:103AFC002CE07B6818683B6859683B68DB681A46A1
:103B0C0000F0F2F87B681B686021184600F01BF986
:103B1C001CE07B6818683B6859683B68DB681A4690
:103B2C0000F0B4F87B681B684021184600F00BF9D4
:103B3C000CE07B681A683B681B681946104600F05D
:103B4C0002F903E00123FB7300E000BF7B68012254
:103B5C0083F83D207B68002283F83C20FB7B1846D1
:103B6C001037BD4680BD80B483B000AF786000BF15
:103B7C000C37BD4680BC704780B483B000AF786012
:103B8C0000BF0C37BD4680BC704780B483B000AF1B
:103B9C00786000BF0C37BD4680BC704780B483B0E2
:103BAC0000AF786000BF0C37BD4680BC704700008A
:103BBC0080B485B000AF786039607B681B68FB60AF
:103BCC007B682F4A93420BD07B68B3F1804F07D0B0
:103BDC007B682C4A934203D07B682B4A934208D1D2
:103BEC00FB6823F07003FB603B685B68FA68134367
:103BFC00FB607B68224A93420BD07B68B3F1804F09
:103C0C0007D07B681F4A934203D07B681E4A9342BD
:103C1C0008D1FB6823F44073FB603B68DB68FA68EF
:103C2C001343FB60FB6823F080023B685B69134322
:103C3C00FB607B68FA681A603B689A687B68DA629A
:103C4C003B681A687B689A627B680D4A934203D181
:103C5C003B681A697B681A637B6801225A617B682E
:103C6C001B6903F00103002B05D07B681B6923F053
:103C7C0001027B681A6100BF1437BD4680BC7047D7
:103C8C00002C0140000400400008004080B487B0C4
:103C9C0000AFF860B9607A60FB681B6A7B61FB68F7
:103CAC001B6A23F00102FB681A62FB689B693B618B
:103CBC003B6923F0F0033B617B681B013A691343BA
:103CCC003B617B6923F00A037B617A69BB68134310
:103CDC007B61FB683A699A61FB687A691A6200BF7A
:103CEC001C37BD4680BC704780B487B000AFF8600D
:103CFC00B9607A60FB681B6A7B61FB681B6A23F006
:103D0C001002FB681A62FB689B693B613B6923F4F8
:103D1C0070433B617B681B033A6913433B617B69CE
:103D2C0023F0A0037B61BB681B017A6913437B61A1
:103D3C00FB683A699A61FB687A691A6200BF1C37A2
:103D4C00BD4680BC704780B485B000AF78603960E8
:103D5C007B689B68FB60FB6823F07003FB603A6830
:103D6C00FB68134343F00703FB607B68FA689A60B7
:103D7C0000BF1437BD4680BC704780B487B000AF1D
:103D8C00F860B9607A603B60FB689B687B617B691B
:103D9C0023F47F437B613B681A027B681A43BB6840
:103DAC0013437A6913437B61FB687A699A6000BF9D
:103DBC001C37BD4680BC704780B485B000AF7860BE
:103DCC0039607B6893F83C30012B01D1022346E02B
:103DDC007B68012283F83C207B68022283F83D201B
:103DEC007B681B685B68FB607B681B689B68BB60BF
:103DFC00FB6823F07003FB603B681B68FA68134395
:103E0C00FB607B681B68FA685A607B681B68164A03
:103E1C0093420ED07B681B68B3F1804F09D07B684E
:103E2C001B68124A934204D07B681B68104A934269
:103E3C000CD1BB6823F08003BB603B685B68BA683D
:103E4C001343BB607B681B68BA689A607B6801226D
:103E5C0083F83D207B68002283F83C200023184621
:103E6C001437BD4680BC7047002C01400004004054
:103E7C000008004080B483B000AF786000BF0C37FE
:103E8C00BD4680BC704780B483B000AF786000BF83
:103E9C000C37BD4680BC704780B584B000AFF8606D
:103EAC00B9607A607B68092B00F2CA8201A252F8D1
:103EBC0023F000BFE93E0008733F0008FD3F0008F7
:103ECC0087400008114100089B410008254200086A
:103EDC00AF42000839430008C3430008FB68186868
:103EEC00BB681B8800221946FDF7FFF8FB680433FA
:103EFC001868BB6802331B8800221946FDF7F5F8D9
:103F0C00FB6808331868BB6804331B880022194609
:103F1C00FDF7EBF8FB680C331868BB6806331B889D
:103F2C0000221946FDF7E1F8FB6810331868BB68EE
:103F3C0008331B8800221946FDF7D7F8FB681433A9
:103F4C001868BB680A331B8800221946FDF7CDF8A8
:103F5C00FB6818331868BB680C331B8801221946A0
:103F6C00FDF7C3F8B1E2FB681868BB681B88012237
:103F7C001946FDF7BAF8FB6804331868BB680233BE
:103F8C001B8800221946FDF7B0F8FB680833186847
:103F9C00BB6804331B8800221946FDF7A6F8FB68A2
:103FAC000C331868BB6806331B8801221946FDF7D1
:103FBC009CF8FB6810331868BB6808331B88012217
:103FCC001946FDF792F8FB6814331868BB680A337E
:103FDC001B8801221946FDF788F8FB68183318680E
:103FEC00BB680C331B8801221946FDF77EF86CE286
:103FFC00FB681868BB681B8800221946FDF775F82A
:10400C00FB6804331868BB6802331B88002219460E
:10401C00FDF76BF8FB6808331868BB6804331B8822
:10402C0001221946FDF761F8FB680C331868BB6870
:10403C0006331B8800221946FDF757F8FB6810332E
:10404C001868BB6808331B8800221946FDF74DF829
:10405C00FB6814331868BB680A331B8801221946A5
:10406C00FDF743F8FB6818331868BB680C331B88E2
:10407C0000221946FDF739F827E2FB681868BB687F
:10408C001B8800221946FDF730F8FB6804331868CA
:10409C00BB6802331B8800221946FDF726F8FB6823
:1040AC0008331868BB6804331B8800221946FDF7D7
:1040BC001CF8FB680C331868BB6806331B8800229D
:1040CC001946FDF712F8FB6810331868BB68083303
:1040DC001B8801221946FDF708F8FB681433186891
:1040EC00BB680A331B8801221946FCF7FEFFFB68EC
:1040FC0018331868BB680C331B8800221946FCF770
:10410C00F4FFE2E1FB681868BB681B8801221946C2
:10411C00FCF7EBFFFB6804331868BB6802331B88A1
:10412C0000221946FCF7E1FFFB6808331868BB68EE
:10413C0004331B8800221946FCF7D7FFFB680C33AD
:10414C001868BB6806331B8801221946FCF7CDFFA3
:10415C00FB6810331868BB6808331B8801221946AA
:10416C00FCF7C3FFFB6814331868BB680A331B8861
:10417C0000221946FCF7B9FFFB6818331868BB68B6
:10418C000C331B8800221946FCF7AFFF9DE1FB683E
:10419C001868BB681B8800221946FCF7A6FFFB6851
:1041AC0004331868BB6802331B8801221946FCF7DC
:1041BC009CFFFB6808331868BB6804331B8800221B
:1041CC001946FCF792FFFB680C331868BB68063382
:1041DC001B8800221946FCF788FFFB68103318680F
:1041EC00BB6808331B8801221946FCF77EFFFB686D
:1041FC0014331868BB680A331B8800221946FCF775
:10420C0074FFFB6818331868BB680C331B880022DA
:10421C001946FCF76AFF58E1FB681868BB681B88F5
:10422C0000221946FCF761FFFB6804331868BB6871
:10423C0002331B8801221946FCF757FFFB68083331
:10424C001868BB6804331B8800221946FCF74DFF25
:10425C00FB680C331868BB6806331B8800221946B0
:10426C00FCF743FFFB6810331868BB6808331B88E6
:10427C0000221946FCF739FFFB6814331868BB6839
:10428C000A331B8800221946FCF72FFFFB681833F2
:10429C001868BB680C331B8800221946FCF725FFF5
:1042AC0013E1FB681868BB681B8800221946FCF7F1
:1042BC001CFFFB6804331868BB6802331B880022A0
:1042CC001946FCF712FFFB6808331868BB68043307
:1042DC001B8800221946FCF708FFFB680C33186892
:1042EC00BB6806331B8801221946FCF7FEFEFB68EF
:1042FC0010331868BB6808331B8801221946FCF779
:10430C00F4FEFB6814331868BB680A331B8801225F
:10431C001946FCF7EAFEFB6818331868BB680C33C7
:10432C001B8801221946FCF7E0FECEE0FB681868FA
:10433C00BB681B8800221946FCF7D7FEFB680433C8
:10434C001868BB6802331B8800221946FCF7CDFEA7
:10435C00FB6808331868BB6804331B8800221946B5
:10436C00FCF7C3FEFB680C331868BB6806331B886C
:10437C0000221946FCF7B9FEFB6810331868BB68BD
:10438C0008331B8800221946FCF7AFFEFB68143378
:10439C001868BB680A331B8800221946FCF7A5FE77
:1043AC00FB6818331868BB680C331B88002219464D
:1043BC00FCF79BFE89E0FB681868BB681B88002231
:1043CC001946FCF792FEFB6804331868BB6802338D
:1043DC001B8800221946FCF788FEFB680833186816
:1043EC00BB6804331B8800221946FCF77EFEFB6871
:1043FC000C331868BB6806331B8800221946FCF77F
:10440C0074FEFB6810331868BB6808331B880122E4
:10441C001946FCF76AFEFB6814331868BB680A334C
:10442C001B8800221946FCF760FEFB6818331868DD
:10443C00BB680C331B8800221946FCF756FE44E07F
:10444C00FB681868BB681B8801221946FCF74DFEF7
:10445C00FB6804331868BB6802331B8801221946B9
:10446C00FCF743FEFB6808331868BB6804331B88F1
:10447C0001221946FCF739FEFB680C331868BB683F
:10448C0006331B8801221946FCF72FFEFB681033FC
:10449C001868BB6808331B8801221946FCF725FEF7
:1044AC00FB6814331868BB680A331B880122194651
:1044BC00FCF71BFEFB6818331868BB680C331B88B1
:1044CC0001221946FCF711FE00BF00BF1037BD4694
:1044DC0080BD00BF80B582B000AF78607868FCF713
:1044EC00E7FF00BF0837BD4680BD000080B582B035
:1044FC0000AF78600B46FB7013463B80FB78012BBA
:10450C0006D10823062205497868FCF75FFF01E015
:10451C00FBF790FF00BF0837BD4680BD600100204F
:10452C0080B483B000AF786000BF0C37BD4680BC50
:10453C00704780B582B000AF78607868FCF7B8FF40
:10454C0000BF0837BD4680BD80B584B000AF786031
:10455C0039600023FB6077E03F4AFB68134419780D
:10456C003E4AFB6813440A461A703D4AFB681344E2
:10457C001978394AFB6813440A461A70FB689B0089
:10458C007A6813441868FB685B003A6813441B880C
:10459C001946FCF793FD03461946314AFB68134450
:1045AC000A461A702D4AFB6813441A782A49FB688C
:1045BC000B441B789A4244D1274AFB6813441A785F
:1045CC002749FB680B441B789A423AD1254AFB6871
:1045DC0013441A782149FB680B441B789A4218D073
:1045EC001E4AFB68134419781E4AFB6813440A469A
:1045FC001A701C4AFB6813441B78002B21D11A4AF1
:10460C00FB68134401221A70184B4FF4FA721A60AB
:10461C0017E0164B1B68013B144A1360134B1B68C5
:10462C00002B0EDC114B4FF4FA721A600D4AFB682A
:10463C0013441B78002B04D10D4AFB681344012250
:10464C001A70FB680133FB60FB68022B84DD00BF32
:10465C0000BF1037BD4680BDA8000020AC00002074
:10466C00A4000020B0000020B40000208000002036
:10467C00B800002080B483B000AF78603960094B7B
:10468C001B683A6892FBF3F207497B6841F82320D8
:10469C00064A7B68002142F8231000BF0C37BD4648
:1046AC0080BC70478400002090010020680100202D
:1046BC0080B483B000AF00237B601CE0124A7B689F
:1046CC0052F82330002B08DD0F4A7B6852F8233058
:1046DC005A1E0D497B6841F823200B4A7B6852F81F
:1046EC002330002B04DC094A7B68012142F823109B
:1046FC007B6801337B607B68092BDFDD00BF00BF6B
:10470C000C37BD4680BC704790010020680100202A
:10471C0070B500260C4D0D4C641BA410A64209D19B
:10472C0000F022F800260A4D0A4C641BA410A64285
:10473C0005D170BD55F8043B98470136EEE755F8A6
:10474C00043B98470136F2E7B8470008B847000821
:10475C00B8470008BC47000803460244934200D106
:10476C00704703F8011BF9E7F8B500BFF8BC08BCAB
:10477C009E467047F8B500BFF8BC08BC9E46704713
:10478C0000000000000000000102030406070809F5
:10479C0000000000010203040203040506070809D7
:0C47AC000A0B0C0D0E0F10100102000093
:0447B80031010008C3
:0447BC000D010008E3
:1047C00000100140000801400008014000200400E2
:1047D0000800000000127A00000C0140000C0140AB
:1047E000000C0140000C0140000C0140000C014095
:1047F000000C014002000400001000200040008076
:10480000800000000008014000080140000801404D
:104810000008014000080140000801400008014074
:1048200040008000000100020004000800100000A9
:10483000030000000500000010000000010000005F
:08484000F40100000A00000071
:04000005080009895D
:00000001FF
